{
  "contractName": "RigelPool",
  "abi": [
    {
      "inputs": [
        {
          "internalType": "address",
          "name": "_token1",
          "type": "address"
        },
        {
          "internalType": "address",
          "name": "_token2",
          "type": "address"
        },
        {
          "internalType": "address",
          "name": "_token3",
          "type": "address"
        },
        {
          "internalType": "address",
          "name": "_token4",
          "type": "address"
        }
      ],
      "stateMutability": "nonpayable",
      "type": "constructor"
    },
    {
      "anonymous": false,
      "inputs": [
        {
          "indexed": true,
          "internalType": "address",
          "name": "provider",
          "type": "address"
        },
        {
          "indexed": true,
          "internalType": "address",
          "name": "token1",
          "type": "address"
        },
        {
          "indexed": true,
          "internalType": "address",
          "name": "token2",
          "type": "address"
        },
        {
          "indexed": false,
          "internalType": "uint256",
          "name": "amount1",
          "type": "uint256"
        },
        {
          "indexed": false,
          "internalType": "uint256",
          "name": "amount2",
          "type": "uint256"
        },
        {
          "indexed": false,
          "internalType": "uint256",
          "name": "time",
          "type": "uint256"
        }
      ],
      "name": "LiquidityProvided",
      "type": "event"
    },
    {
      "anonymous": false,
      "inputs": [
        {
          "indexed": true,
          "internalType": "address",
          "name": "previousOwner",
          "type": "address"
        },
        {
          "indexed": true,
          "internalType": "address",
          "name": "newOwner",
          "type": "address"
        }
      ],
      "name": "OwnershipTransferred",
      "type": "event"
    },
    {
      "inputs": [
        {
          "internalType": "bytes32",
          "name": "",
          "type": "bytes32"
        }
      ],
      "name": "allPair",
      "outputs": [
        {
          "internalType": "address",
          "name": "token1",
          "type": "address"
        },
        {
          "internalType": "address",
          "name": "token2",
          "type": "address"
        }
      ],
      "stateMutability": "view",
      "type": "function",
      "constant": true
    },
    {
      "inputs": [
        {
          "internalType": "bytes32",
          "name": "",
          "type": "bytes32"
        }
      ],
      "name": "liquidityPool",
      "outputs": [
        {
          "internalType": "uint256",
          "name": "reserve1",
          "type": "uint256"
        },
        {
          "internalType": "uint256",
          "name": "reserve2",
          "type": "uint256"
        }
      ],
      "stateMutability": "view",
      "type": "function",
      "constant": true
    },
    {
      "inputs": [],
      "name": "owner",
      "outputs": [
        {
          "internalType": "address",
          "name": "",
          "type": "address"
        }
      ],
      "stateMutability": "view",
      "type": "function",
      "constant": true
    },
    {
      "inputs": [
        {
          "internalType": "address",
          "name": "",
          "type": "address"
        },
        {
          "internalType": "bytes32",
          "name": "",
          "type": "bytes32"
        }
      ],
      "name": "providerLiquidity",
      "outputs": [
        {
          "internalType": "uint256",
          "name": "amount1",
          "type": "uint256"
        },
        {
          "internalType": "uint256",
          "name": "amount2",
          "type": "uint256"
        }
      ],
      "stateMutability": "view",
      "type": "function",
      "constant": true
    },
    {
      "inputs": [],
      "name": "renounceOwnership",
      "outputs": [],
      "stateMutability": "nonpayable",
      "type": "function"
    },
    {
      "inputs": [
        {
          "internalType": "address",
          "name": "newOwner",
          "type": "address"
        }
      ],
      "name": "transferOwnership",
      "outputs": [],
      "stateMutability": "nonpayable",
      "type": "function"
    },
    {
      "inputs": [
        {
          "components": [
            {
              "internalType": "address",
              "name": "_token1",
              "type": "address"
            },
            {
              "internalType": "address",
              "name": "_token2",
              "type": "address"
            },
            {
              "internalType": "uint256",
              "name": "_amount1",
              "type": "uint256"
            },
            {
              "internalType": "uint256",
              "name": "_amount2",
              "type": "uint256"
            }
          ],
          "internalType": "struct RigelPool.Param",
          "name": "P",
          "type": "tuple"
        }
      ],
      "name": "addLiquidity",
      "outputs": [],
      "stateMutability": "nonpayable",
      "type": "function"
    },
    {
      "inputs": [
        {
          "internalType": "address",
          "name": "_token1",
          "type": "address"
        },
        {
          "internalType": "address",
          "name": "_token2",
          "type": "address"
        }
      ],
      "name": "getPairLiquidity",
      "outputs": [
        {
          "internalType": "uint256",
          "name": "amount1",
          "type": "uint256"
        },
        {
          "internalType": "uint256",
          "name": "amount2",
          "type": "uint256"
        }
      ],
      "stateMutability": "view",
      "type": "function",
      "constant": true
    },
    {
      "inputs": [
        {
          "internalType": "address",
          "name": "_token1",
          "type": "address"
        },
        {
          "internalType": "address",
          "name": "_token2",
          "type": "address"
        }
      ],
      "name": "getProviderLiquidity",
      "outputs": [
        {
          "internalType": "uint256",
          "name": "amount1",
          "type": "uint256"
        },
        {
          "internalType": "uint256",
          "name": "amount2",
          "type": "uint256"
        }
      ],
      "stateMutability": "view",
      "type": "function",
      "constant": true
    }
  ],
  "bytecode": "0x60806040523480156200001157600080fd5b50604051620027ce380380620027ce833981810160405281019062000037919062000712565b6001600081905550600062000051620006be60201b60201c565b905080600160006101000a81548173ffffffffffffffffffffffffffffffffffffffff021916908373ffffffffffffffffffffffffffffffffffffffff1602179055508073ffffffffffffffffffffffffffffffffffffffff16600073ffffffffffffffffffffffffffffffffffffffff167f8be0079c531659141344cd1fd0a4f28419497f9722a3daafe3b4186f6b6457e060405160405180910390a35060405180604001604052808573ffffffffffffffffffffffffffffffffffffffff1681526020018473ffffffffffffffffffffffffffffffffffffffff1681525060026000620001478787620006c660201b60201c565b815260200190815260200160002060008201518160000160006101000a81548173ffffffffffffffffffffffffffffffffffffffff021916908373ffffffffffffffffffffffffffffffffffffffff16021790555060208201518160010160006101000a81548173ffffffffffffffffffffffffffffffffffffffff021916908373ffffffffffffffffffffffffffffffffffffffff16021790555090505060405180604001604052808373ffffffffffffffffffffffffffffffffffffffff1681526020018273ffffffffffffffffffffffffffffffffffffffff16815250600260006200023d8585620006c660201b60201c565b815260200190815260200160002060008201518160000160006101000a81548173ffffffffffffffffffffffffffffffffffffffff021916908373ffffffffffffffffffffffffffffffffffffffff16021790555060208201518160010160006101000a81548173ffffffffffffffffffffffffffffffffffffffff021916908373ffffffffffffffffffffffffffffffffffffffff16021790555090505060405180604001604052808573ffffffffffffffffffffffffffffffffffffffff1681526020018373ffffffffffffffffffffffffffffffffffffffff1681525060026000620003338786620006c660201b60201c565b815260200190815260200160002060008201518160000160006101000a81548173ffffffffffffffffffffffffffffffffffffffff021916908373ffffffffffffffffffffffffffffffffffffffff16021790555060208201518160010160006101000a81548173ffffffffffffffffffffffffffffffffffffffff021916908373ffffffffffffffffffffffffffffffffffffffff16021790555090505060405180604001604052808573ffffffffffffffffffffffffffffffffffffffff1681526020018273ffffffffffffffffffffffffffffffffffffffff1681525060026000620004298785620006c660201b60201c565b815260200190815260200160002060008201518160000160006101000a81548173ffffffffffffffffffffffffffffffffffffffff021916908373ffffffffffffffffffffffffffffffffffffffff16021790555060208201518160010160006101000a81548173ffffffffffffffffffffffffffffffffffffffff021916908373ffffffffffffffffffffffffffffffffffffffff16021790555090505060405180604001604052808473ffffffffffffffffffffffffffffffffffffffff1681526020018373ffffffffffffffffffffffffffffffffffffffff16815250600260006200051f8686620006c660201b60201c565b815260200190815260200160002060008201518160000160006101000a81548173ffffffffffffffffffffffffffffffffffffffff021916908373ffffffffffffffffffffffffffffffffffffffff16021790555060208201518160010160006101000a81548173ffffffffffffffffffffffffffffffffffffffff021916908373ffffffffffffffffffffffffffffffffffffffff16021790555090505060405180604001604052808473ffffffffffffffffffffffffffffffffffffffff1681526020018273ffffffffffffffffffffffffffffffffffffffff1681525060026000620006158685620006c660201b60201c565b815260200190815260200160002060008201518160000160006101000a81548173ffffffffffffffffffffffffffffffffffffffff021916908373ffffffffffffffffffffffffffffffffffffffff16021790555060208201518160010160006101000a81548173ffffffffffffffffffffffffffffffffffffffff021916908373ffffffffffffffffffffffffffffffffffffffff160217905550905050505050506200084c565b600033905090565b60008282604051602001620006dd92919062000799565b60405160208183030381529060405280519060200120905092915050565b6000815190506200070c8162000832565b92915050565b600080600080608085870312156200072957600080fd5b60006200073987828801620006fb565b94505060206200074c87828801620006fb565b93505060406200075f87828801620006fb565b92505060606200077287828801620006fb565b91505092959194509250565b620007936200078d82620007c9565b620007fd565b82525050565b6000620007a782856200077e565b601482019150620007b982846200077e565b6014820191508190509392505050565b6000620007d682620007dd565b9050919050565b600073ffffffffffffffffffffffffffffffffffffffff82169050919050565b60006200080a8262000811565b9050919050565b60006200081e8262000825565b9050919050565b60008160601b9050919050565b6200083d81620007c9565b81146200084957600080fd5b50565b611f72806200085c6000396000f3fe608060405234801561001057600080fd5b50600436106100935760003560e01c8063715018a611610066578063715018a6146101475780638da5cb5b14610151578063dd701ff21461016f578063eb31bf04146101a0578063f2fde38b146101d157610093565b80630a71fa18146100985780631aed6222146100c957806320c7917e146100fa5780634deada8d14610116575b600080fd5b6100b260048036038101906100ad9190611add565b6101ed565b6040516100c0929190611d30565b60405180910390f35b6100e360048036038101906100de9190611b19565b61021e565b6040516100f1929190611d30565b60405180910390f35b610114600480360381019061010f9190611b42565b610242565b005b610130600480360381019061012b9190611b19565b61091a565b60405161013e929190611ca7565b60405180910390f35b61014f61097e565b005b610159610aee565b6040516101669190611c8c565b60405180910390f35b61018960048036038101906101849190611aa1565b610b18565b604051610197929190611d30565b60405180910390f35b6101ba60048036038101906101b59190611aa1565b610d7d565b6040516101c8929190611d30565b60405180910390f35b6101eb60048036038101906101e69190611a78565b61105c565b005b6004602052816000526040600020602052806000526040600020600091509150508060000154908060010154905082565b60036020528060005260406000206000915090508060000154908060010154905082565b600260005414156102bb576040517f08c379a000000000000000000000000000000000000000000000000000000000815260040180806020018281038252601f8152602001807f5265656e7472616e637947756172643a207265656e7472616e742063616c6c0081525060200191505060405180910390fd5b60026000819055508060000151600073ffffffffffffffffffffffffffffffffffffffff168173ffffffffffffffffffffffffffffffffffffffff161415610338576040517f08c379a000000000000000000000000000000000000000000000000000000000815260040161032f90611cd0565b60405180910390fd5b8160200151600073ffffffffffffffffffffffffffffffffffffffff168173ffffffffffffffffffffffffffffffffffffffff1614156103ad576040517f08c379a00000000000000000000000000000000000000000000000000000000081526004016103a490611cd0565b60405180910390fd5b826040015160008114156103f6576040517f08c379a00000000000000000000000000000000000000000000000000000000081526004016103ed90611d10565b60405180910390fd5b8360600151600081141561043f576040517f08c379a000000000000000000000000000000000000000000000000000000000815260040161043690611d10565b60405180910390fd5b8460000151856020015160006104558383611251565b905060006104638385611251565b9050600073ffffffffffffffffffffffffffffffffffffffff166002600084815260200190815260200160002060000160009054906101000a900473ffffffffffffffffffffffffffffffffffffffff1673ffffffffffffffffffffffffffffffffffffffff1614158061053a5750600073ffffffffffffffffffffffffffffffffffffffff166002600083815260200190815260200160002060000160009054906101000a900473ffffffffffffffffffffffffffffffffffffffff1673ffffffffffffffffffffffffffffffffffffffff1614155b610579576040517f08c379a000000000000000000000000000000000000000000000000000000000815260040161057090611cf0565b60405180910390fd5b600061058d8a600001518b60200151611284565b90506105c2308b604001518c6000015173ffffffffffffffffffffffffffffffffffffffff166113219092919063ffffffff16565b6105f5308b606001518c6020015173ffffffffffffffffffffffffffffffffffffffff166113219092919063ffffffff16565b61062a33308c604001518d6000015173ffffffffffffffffffffffffffffffffffffffff166114e6909392919063ffffffff16565b6106666106356115a7565b308c606001518d6020015173ffffffffffffffffffffffffffffffffffffffff166114e6909392919063ffffffff16565b6106938a6040015160036000848152602001908152602001600020600001546115af90919063ffffffff16565b60036000838152602001908152602001600020600001819055506106da8a6060015160036000848152602001908152602001600020600101546115af90919063ffffffff16565b600360008381526020019081526020016000206001018190555061075e8a60400151600460003373ffffffffffffffffffffffffffffffffffffffff1673ffffffffffffffffffffffffffffffffffffffff1681526020019081526020016000206000848152602001908152602001600020600001546115af90919063ffffffff16565b600460003373ffffffffffffffffffffffffffffffffffffffff1673ffffffffffffffffffffffffffffffffffffffff16815260200190815260200160002060008381526020019081526020016000206000018190555061081f8a60600151600460003373ffffffffffffffffffffffffffffffffffffffff1673ffffffffffffffffffffffffffffffffffffffff1681526020019081526020016000206000848152602001908152602001600020600101546115af90919063ffffffff16565b600460003373ffffffffffffffffffffffffffffffffffffffff1673ffffffffffffffffffffffffffffffffffffffff168152602001908152602001600020600083815260200190815260200160002060010181905550896020015173ffffffffffffffffffffffffffffffffffffffff168a6000015173ffffffffffffffffffffffffffffffffffffffff163373ffffffffffffffffffffffffffffffffffffffff167f3ea018e97d914daada5dca23c69ea4f12b5f65c9aa03259250e6ab43b34822158d604001518e60600151426040516108fe93929190611d59565b60405180910390a4505050505050505050600160008190555050565b60026020528060005260406000206000915090508060000160009054906101000a900473ffffffffffffffffffffffffffffffffffffffff16908060010160009054906101000a900473ffffffffffffffffffffffffffffffffffffffff16905082565b6109866115a7565b73ffffffffffffffffffffffffffffffffffffffff166109a4610aee565b73ffffffffffffffffffffffffffffffffffffffff1614610a2d576040517f08c379a00000000000000000000000000000000000000000000000000000000081526004018080602001828103825260208152602001807f4f776e61626c653a2063616c6c6572206973206e6f7420746865206f776e657281525060200191505060405180910390fd5b600073ffffffffffffffffffffffffffffffffffffffff16600160009054906101000a900473ffffffffffffffffffffffffffffffffffffffff1673ffffffffffffffffffffffffffffffffffffffff167f8be0079c531659141344cd1fd0a4f28419497f9722a3daafe3b4186f6b6457e060405160405180910390a36000600160006101000a81548173ffffffffffffffffffffffffffffffffffffffff021916908373ffffffffffffffffffffffffffffffffffffffff160217905550565b6000600160009054906101000a900473ffffffffffffffffffffffffffffffffffffffff16905090565b60008083600073ffffffffffffffffffffffffffffffffffffffff168173ffffffffffffffffffffffffffffffffffffffff161415610b8c576040517f08c379a0000000000000000000000000000000000000000000000000000000008152600401610b8390611cd0565b60405180910390fd5b83600073ffffffffffffffffffffffffffffffffffffffff168173ffffffffffffffffffffffffffffffffffffffff161415610bfd576040517f08c379a0000000000000000000000000000000000000000000000000000000008152600401610bf490611cd0565b60405180910390fd5b85856000610c0b8383611251565b90506000610c198385611251565b9050600073ffffffffffffffffffffffffffffffffffffffff166002600084815260200190815260200160002060000160009054906101000a900473ffffffffffffffffffffffffffffffffffffffff1673ffffffffffffffffffffffffffffffffffffffff16141580610cf05750600073ffffffffffffffffffffffffffffffffffffffff166002600083815260200190815260200160002060000160009054906101000a900473ffffffffffffffffffffffffffffffffffffffff1673ffffffffffffffffffffffffffffffffffffffff1614155b610d2f576040517f08c379a0000000000000000000000000000000000000000000000000000000008152600401610d2690611cf0565b60405180910390fd5b6000610d3b8b8b611284565b90506003600082815260200190815260200160002060000154600360008381526020019081526020016000206001015498509850505050505050509250929050565b60008083600073ffffffffffffffffffffffffffffffffffffffff168173ffffffffffffffffffffffffffffffffffffffff161415610df1576040517f08c379a0000000000000000000000000000000000000000000000000000000008152600401610de890611cd0565b60405180910390fd5b83600073ffffffffffffffffffffffffffffffffffffffff168173ffffffffffffffffffffffffffffffffffffffff161415610e62576040517f08c379a0000000000000000000000000000000000000000000000000000000008152600401610e5990611cd0565b60405180910390fd5b85856000610e708383611251565b90506000610e7e8385611251565b9050600073ffffffffffffffffffffffffffffffffffffffff166002600084815260200190815260200160002060000160009054906101000a900473ffffffffffffffffffffffffffffffffffffffff1673ffffffffffffffffffffffffffffffffffffffff16141580610f555750600073ffffffffffffffffffffffffffffffffffffffff166002600083815260200190815260200160002060000160009054906101000a900473ffffffffffffffffffffffffffffffffffffffff1673ffffffffffffffffffffffffffffffffffffffff1614155b610f94576040517f08c379a0000000000000000000000000000000000000000000000000000000008152600401610f8b90611cf0565b60405180910390fd5b6000610fa08b8b611284565b9050600460003373ffffffffffffffffffffffffffffffffffffffff1673ffffffffffffffffffffffffffffffffffffffff168152602001908152602001600020600082815260200190815260200160002060000154600460003373ffffffffffffffffffffffffffffffffffffffff1673ffffffffffffffffffffffffffffffffffffffff16815260200190815260200160002060008381526020019081526020016000206000015498509850505050505050509250929050565b6110646115a7565b73ffffffffffffffffffffffffffffffffffffffff16611082610aee565b73ffffffffffffffffffffffffffffffffffffffff161461110b576040517f08c379a00000000000000000000000000000000000000000000000000000000081526004018080602001828103825260208152602001807f4f776e61626c653a2063616c6c6572206973206e6f7420746865206f776e657281525060200191505060405180910390fd5b600073ffffffffffffffffffffffffffffffffffffffff168173ffffffffffffffffffffffffffffffffffffffff161415611191576040517f08c379a0000000000000000000000000000000000000000000000000000000008152600401808060200182810382526026815260200180611e916026913960400191505060405180910390fd5b8073ffffffffffffffffffffffffffffffffffffffff16600160009054906101000a900473ffffffffffffffffffffffffffffffffffffffff1673ffffffffffffffffffffffffffffffffffffffff167f8be0079c531659141344cd1fd0a4f28419497f9722a3daafe3b4186f6b6457e060405160405180910390a380600160006101000a81548173ffffffffffffffffffffffffffffffffffffffff021916908373ffffffffffffffffffffffffffffffffffffffff16021790555050565b60008282604051602001611266929190611c60565b60405160208183030381529060405280519060200120905092915050565b6000806112918484611251565b9050600061129f8486611251565b9050600073ffffffffffffffffffffffffffffffffffffffff166002600084815260200190815260200160002060000160009054906101000a900473ffffffffffffffffffffffffffffffffffffffff1673ffffffffffffffffffffffffffffffffffffffff161461131557819250505061131b565b80925050505b92915050565b60008114806113ef575060008373ffffffffffffffffffffffffffffffffffffffff1663dd62ed3e30856040518363ffffffff1660e01b8152600401808373ffffffffffffffffffffffffffffffffffffffff1681526020018273ffffffffffffffffffffffffffffffffffffffff1681526020019250505060206040518083038186803b1580156113b257600080fd5b505afa1580156113c6573d6000803e3d6000fd5b505050506040513d60208110156113dc57600080fd5b8101908080519060200190929190505050145b611444576040517f08c379a0000000000000000000000000000000000000000000000000000000008152600401808060200182810382526036815260200180611f076036913960400191505060405180910390fd5b6114e18363095ea7b360e01b8484604051602401808373ffffffffffffffffffffffffffffffffffffffff16815260200182815260200192505050604051602081830303815290604052907bffffffffffffffffffffffffffffffffffffffffffffffffffffffff19166020820180517bffffffffffffffffffffffffffffffffffffffffffffffffffffffff8381831617835250505050611637565b505050565b6115a1846323b872dd60e01b858585604051602401808473ffffffffffffffffffffffffffffffffffffffff1681526020018373ffffffffffffffffffffffffffffffffffffffff1681526020018281526020019350505050604051602081830303815290604052907bffffffffffffffffffffffffffffffffffffffffffffffffffffffff19166020820180517bffffffffffffffffffffffffffffffffffffffffffffffffffffffff8381831617835250505050611637565b50505050565b600033905090565b60008082840190508381101561162d576040517f08c379a000000000000000000000000000000000000000000000000000000000815260040180806020018281038252601b8152602001807f536166654d6174683a206164646974696f6e206f766572666c6f77000000000081525060200191505060405180910390fd5b8091505092915050565b6000611699826040518060400160405280602081526020017f5361666545524332303a206c6f772d6c6576656c2063616c6c206661696c65648152508573ffffffffffffffffffffffffffffffffffffffff166117269092919063ffffffff16565b9050600081511115611721578080602001905160208110156116ba57600080fd5b8101908080519060200190929190505050611720576040517f08c379a000000000000000000000000000000000000000000000000000000000815260040180806020018281038252602a815260200180611edd602a913960400191505060405180910390fd5b5b505050565b6060611735848460008561173e565b90509392505050565b606082471015611799576040517f08c379a0000000000000000000000000000000000000000000000000000000008152600401808060200182810382526026815260200180611eb76026913960400191505060405180910390fd5b6117a2856118e6565b611814576040517f08c379a000000000000000000000000000000000000000000000000000000000815260040180806020018281038252601d8152602001807f416464726573733a2063616c6c20746f206e6f6e2d636f6e747261637400000081525060200191505060405180910390fd5b6000808673ffffffffffffffffffffffffffffffffffffffff1685876040518082805190602001908083835b602083106118635780518252602082019150602081019050602083039250611840565b6001836020036101000a03801982511681845116808217855250505050505090500191505060006040518083038185875af1925050503d80600081146118c5576040519150601f19603f3d011682016040523d82523d6000602084013e6118ca565b606091505b50915091506118da8282866118f9565b92505050949350505050565b600080823b905060008111915050919050565b60608315611909578290506119be565b60008351111561191c5782518084602001fd5b816040517f08c379a00000000000000000000000000000000000000000000000000000000081526004018080602001828103825283818151815260200191508051906020019080838360005b83811015611983578082015181840152602081019050611968565b50505050905090810190601f1680156119b05780820380516001836020036101000a031916815260200191505b509250505060405180910390fd5b9392505050565b6000813590506119d481611e4b565b92915050565b6000813590506119e981611e62565b92915050565b600060808284031215611a0157600080fd5b611a0b6080611d90565b90506000611a1b848285016119c5565b6000830152506020611a2f848285016119c5565b6020830152506040611a4384828501611a63565b6040830152506060611a5784828501611a63565b60608301525092915050565b600081359050611a7281611e79565b92915050565b600060208284031215611a8a57600080fd5b6000611a98848285016119c5565b91505092915050565b60008060408385031215611ab457600080fd5b6000611ac2858286016119c5565b9250506020611ad3858286016119c5565b9150509250929050565b60008060408385031215611af057600080fd5b6000611afe858286016119c5565b9250506020611b0f858286016119da565b9150509250929050565b600060208284031215611b2b57600080fd5b6000611b39848285016119da565b91505092915050565b600060808284031215611b5457600080fd5b6000611b62848285016119ef565b91505092915050565b611b7481611dd2565b82525050565b611b8b611b8682611dd2565b611e18565b82525050565b6000611b9e600f83611dc1565b91507f496e76616c6964206164647265737300000000000000000000000000000000006000830152602082019050919050565b6000611bde601983611dc1565b91507f546f6b656e207061697220646f6573206e6f74206578697374000000000000006000830152602082019050919050565b6000611c1e601883611dc1565b91507f5a65726f2076616c7565206e6f7420737570706f7274656400000000000000006000830152602082019050919050565b611c5a81611e0e565b82525050565b6000611c6c8285611b7a565b601482019150611c7c8284611b7a565b6014820191508190509392505050565b6000602082019050611ca16000830184611b6b565b92915050565b6000604082019050611cbc6000830185611b6b565b611cc96020830184611b6b565b9392505050565b60006020820190508181036000830152611ce981611b91565b9050919050565b60006020820190508181036000830152611d0981611bd1565b9050919050565b60006020820190508181036000830152611d2981611c11565b9050919050565b6000604082019050611d456000830185611c51565b611d526020830184611c51565b9392505050565b6000606082019050611d6e6000830186611c51565b611d7b6020830185611c51565b611d886040830184611c51565b949350505050565b6000604051905081810181811067ffffffffffffffff82111715611db757611db6611e3c565b5b8060405250919050565b600082825260208201905092915050565b6000611ddd82611dee565b9050919050565b6000819050919050565b600073ffffffffffffffffffffffffffffffffffffffff82169050919050565b6000819050919050565b6000611e2382611e2a565b9050919050565b6000611e3582611e3e565b9050919050565bfe5b60008160601b9050919050565b611e5481611dd2565b8114611e5f57600080fd5b50565b611e6b81611de4565b8114611e7657600080fd5b50565b611e8281611e0e565b8114611e8d57600080fd5b5056fe4f776e61626c653a206e6577206f776e657220697320746865207a65726f2061646472657373416464726573733a20696e73756666696369656e742062616c616e636520666f722063616c6c5361666545524332303a204552433230206f7065726174696f6e20646964206e6f7420737563636565645361666545524332303a20617070726f76652066726f6d206e6f6e2d7a65726f20746f206e6f6e2d7a65726f20616c6c6f77616e6365a26469706673582212200602549e63ae90d41290a84f2462af67b9d15434f817c8ab52d30f84bf45403464736f6c63430007060033",
  "immutableReferences": {},
  "source": "//SPDX-License-Identifier:MIT\npragma solidity >=0.6.0 <0.8.0;\npragma abicoder v2;\n\nimport \"@openzeppelin/contracts/token/ERC20/IERC20.sol\";\nimport \"@openzeppelin/contracts/token/ERC20/SafeERC20.sol\";\nimport \"@openzeppelin/contracts/math/SafeMath.sol\";\nimport \"@openzeppelin/contracts/access/Ownable.sol\";\nimport \"@openzeppelin/contracts/utils/ReentrancyGuard.sol\";\n\n\ncontract RigelPool is ReentrancyGuard, Ownable {\n    using SafeMath for uint256;\n    using SafeERC20 for IERC20;\n\n    struct Param {\n        address _token1;\n        address _token2;\n        uint256 _amount1;\n        uint256 _amount2;\n    }\n\n    struct Pair {\n        address token1;\n        address token2;\n    } // This datatype is used to store different token pair\n\n    struct Pool {\n        uint256 reserve1;\n        uint256 reserve2;\n    } // This datatype defines different pools for token pairs\n\n    struct PoolShare {\n        uint256 amount1;\n        uint256 amount2;\n    } //This datatype defines different poolshare for providers\n\n    mapping(bytes32 => Pair) public allPair; // This stores all the available pair\n    mapping(bytes32 => Pool) public liquidityPool; // This stores all the available pool for diffent pairs\n    mapping(address => mapping(bytes32 => PoolShare)) public providerLiquidity; // This stores all the available liquidity provided by an address to a pool\n    event LiquidityProvided(\n        address indexed provider,\n        address indexed token1,\n        address indexed token2,\n        uint256 amount1,\n        uint256 amount2,\n        uint256 time\n    );\n\n    constructor(\n        address _token1,\n        address _token2,\n        address _token3,\n        address _token4\n    ) ReentrancyGuard() Ownable() {\n        allPair[_hash(_token1, _token2)] = Pair(_token1, _token2);\n        allPair[_hash(_token3, _token4)] = Pair(_token3, _token4);\n        allPair[_hash(_token1, _token3)] = Pair(_token1, _token3);\n        allPair[_hash(_token1, _token4)] = Pair(_token1, _token4);\n        allPair[_hash(_token2, _token3)] = Pair(_token2, _token3);\n        allPair[_hash(_token2, _token4)] = Pair(_token2, _token4);\n    }\n\n    /*\n     * @dev This modifier checks if  the pair exists\n     **/\n    modifier pairExist(address _token1, address _token2) {\n        bytes32 hash1 = _hash(_token1, _token2);\n        bytes32 hash2 = _hash(_token2, _token1);\n        require(\n            allPair[hash1].token1 != address(0) ||\n                allPair[hash2].token1 != address(0),\n            \"Token pair does not exist\"\n        );\n        _;\n    }\n\n    /*\n     * @dev This modifier checks for no zero value\n     **/\n    modifier notZero(uint256 _value) {\n        require(_value != 0, \"Zero value not supported\");\n        _;\n    }\n\n    /*\n     * @dev This modifier checks for a valid address\n     **/\n    modifier validAddress(address _addr) {\n        require(_addr != address(0), \"Invalid address\");\n        _;\n    }\n\n    /*\n     * @dev This function is used to hash token addresses\n     **/\n    function _hash(address _token1, address _token2)\n        private\n        pure\n        returns (bytes32)\n    {\n        return keccak256(abi.encodePacked(_token1, _token2));\n    }\n\n    /*\n     * @dev This function is used to get hash of the pair\n     **/\n    function _getHash(address _token1, address _token2)\n        private\n        view\n        returns (bytes32)\n    {\n        bytes32 hash1 = _hash(_token1, _token2);\n        bytes32 hash2 = _hash(_token2, _token1);\n        if (allPair[hash1].token1 != address(0)) {\n            return hash1;\n        } else {\n            return hash2;\n        }\n    }\n\n    /*\n     * @dev This is used to add liquidity to a pool\n     **/\n    function addLiquidity(Param memory P)\n        external\n        nonReentrant\n        validAddress(P._token1)\n        validAddress(P._token2)\n        notZero(P._amount1)\n        notZero(P._amount2)\n        pairExist(P._token1, P._token2)\n    {\n        bytes32 pairHash = _getHash(P._token1, P._token2);\n        IERC20(P._token1).safeApprove(address(this), P._amount1);\n        IERC20(P._token2).safeApprove(address(this), P._amount2);\n        IERC20(P._token1).safeTransferFrom(\n            msg.sender,\n            address(this),\n            P._amount1\n        );\n        IERC20(P._token2).safeTransferFrom(\n            _msgSender(),\n            address(this),\n            P._amount2\n        );\n        liquidityPool[pairHash].reserve1 = liquidityPool[pairHash].reserve1.add(\n            P._amount1\n        );\n        liquidityPool[pairHash].reserve2 = liquidityPool[pairHash].reserve2.add(\n            P._amount2\n        );\n        providerLiquidity[msg.sender][pairHash].amount1 = providerLiquidity[\n            msg.sender\n        ][pairHash].amount1.add(P._amount1);\n        providerLiquidity[msg.sender][pairHash].amount2 = providerLiquidity[\n            msg.sender\n        ][pairHash].amount2.add(P._amount2);\n        emit LiquidityProvided(\n            msg.sender,\n            P._token1,\n            P._token2,\n            P._amount1,\n            P._amount2,\n            block.timestamp\n        );\n    }\n\n    /*\n     * @dev This is used to get the liquidity of a pair\n     **/\n    function getPairLiquidity(address _token1, address _token2)\n        external\n        view\n        validAddress(_token1)\n        validAddress(_token2)\n        pairExist(_token1, _token2)\n        returns (uint256 amount1, uint256 amount2)\n    {\n        bytes32 pairHash = _getHash(_token1, _token2);\n        return (\n            liquidityPool[pairHash].reserve1,\n            liquidityPool[pairHash].reserve2\n        );\n    }\n\n        /*\n    * @dev This is used to get the liquidity of a provider\n    **/\n    function getProviderLiquidity(address _token1 , address _token2) external validAddress(_token1) validAddress(_token2)   pairExist(_token1,_token2) view returns(uint amount1 , uint amount2) {\n         bytes32  pairHash = _getHash(_token1,_token2);\n         return (providerLiquidity[msg.sender][pairHash].amount1, providerLiquidity[msg.sender][pairHash].amount1);\n    }\n}\n",
  "sourcePath": "/Users/t/Documents/BLOCKCHAIN PROJECT/LiquidityPool-Test/smart-contracts/contracts/RigelPool.sol",
  "compiler": {
    "name": "solc",
    "version": "0.7.6+commit.7338295f.Emscripten.clang"
  },
  "schemaVersion": "3.4.3",
  "updatedAt": "2022-03-15T13:54:13.984Z",
  "networkType": "ethereum",
  "devdoc": {
    "kind": "dev",
    "methods": {
      "owner()": {
        "details": "Returns the address of the current owner."
      },
      "renounceOwnership()": {
        "details": "Leaves the contract without owner. It will not be possible to call `onlyOwner` functions anymore. Can only be called by the current owner. NOTE: Renouncing ownership will leave the contract without an owner, thereby removing any functionality that is only available to the owner."
      },
      "transferOwnership(address)": {
        "details": "Transfers ownership of the contract to a new account (`newOwner`). Can only be called by the current owner."
      }
    },
    "version": 1
  },
  "userdoc": {
    "kind": "user",
    "methods": {},
    "version": 1
  }
}